:100000000C94A2000C94C3000C94C3000C94C30085
:100010000C94C3000C94C3000C94C3000C94C30054
:100020000C94C3000C94C3000C94C3000C94C30044
:100030000C94C3000C94C3000C94C3000C94C30034
:100040000C94C3000C94C3000C94C3000C94C30024
:100050000C94C3000C94C3000C94C3000C94C30014
:100060000C94C3000C94C3000C94C3000C94C30004
:100070000C94C3000C94C3000C94C3000C94C300F4
:100080000C94C3000C94C3000C94C3000C94D909C5
:100090000C94C3000C94C3000C94C3000C94C300D4
:1000A0000C94C3000C94C3000C94C3000C94C300C4
:1000B0000C94C3000C94C3000C94C3000C94C300B4
:1000C0000C94C3000C94C3000C94C3000C94C300A4
:1000D0000C94C3000C94C3000C94C3000C94C30094
:1000E0000C94C3000C94C3000C94C3000C94C30084
:1000F0000C94C3000C94C3000C94C3000C94C30074
:100100000C94C3000C94C3000C94C3000C94C30063
:100110000C94C3000C94C3000C94C3000C94C30053
:100120000C94C3000C94C3000C94C3000C94C30043
:100130000C94C3000C94C3000C94C3000C94C30033
:100140000C94C30011241FBECFEFDFE3DEBFCDBF91
:1001500000E00CBF10E2A8E0B0E201C01D92AD309B
:10016000B107E1F710E2A0E0B0E2E2EAF3E200E07A
:100170000BBF02C007900D92A830B107D9F70E94BB
:10018000EE020C94CF110C940000DF93CF93CDB707
:10019000DEB780E590E022E0FC01208380E590E07E
:1001A000FC01818184E390E028EDFC01208380E460
:1001B00090E022E0FC012083CF91DF910895DF934E
:1001C000CF930F92CDB7DEB7898384E296E0298181
:1001D0002295207FFC0120830F90CF91DF9108951D
:1001E000DF93CF930F92CDB7DEB788E896E0FC019E
:1001F00080818F70898389810F90CF91DF910895DD
:10020000DF93CF93CDB7DEB70E94F0000E94DF00EE
:10021000CF91DF9108950F931F93DF93CF93CDB7C5
:10022000DEB7AC97CDBFDEBF19820E94F0008A8393
:100230008A818E3009F083C080E090E0A8ECB1E4C0
:100240008B839C83AD83BE836B817C818D819E81FA
:1002500020E030E04AEF55E40E94F50DDC01CB01CF
:100260008F839887A987BA8711E06F817885898500
:100270009A8520E030E040E85FE30E944F0F88233A
:100280000CF010E0112329F081E090E08B879C872F
:1002900046C011E06F81788589859A8520E03FEF1F
:1002A0004FE757E40E94EF0E18160CF010E01123F0
:1002B00061F16B817C818D819E8120E030E040E2A4
:1002C00051E40E94F50DDC01CB01BC01CD010E947F
:1002D000210CDC01CB018B879C8712C080E293E06C
:1002E0008D879E878D859E858C01C8010197F1F7CA
:1002F0008C010D871E878B859C8501978B879C873A
:100300008B859C85009751F717C06F81788589850B
:100310009A850E94210CDC01CB018B879C878B8501
:100320009C858F87988B8F8598898C01C801019750
:10033000F1F78C010F87188B89818F5F89838A8100
:100340008D3009F083C089818150898380E090E0FD
:10035000A8ECB1E4898B9A8BAB8BBC8B69897A89C9
:100360008B899C8920E030E04AEF55E40E94F50D2E
:10037000DC01CB018D8B9E8BAF8BB88F11E06D892B
:100380007E898F89988D20E030E040E85FE30E940D
:100390004F0F88230CF010E0112329F081E090E04A
:1003A000898F9A8F46C011E06D897E898F89988DDB
:1003B00020E03FEF4FE757E40E94EF0E18160CF0D5
:1003C00010E0112361F169897A898B899C8920E089
:1003D00030E040E251E40E94F50DDC01CB01BC01AC
:1003E000CD010E94210CDC01CB01898F9A8F12C0B4
:1003F00080E293E08B8F9C8F8B8D9C8D8C01C8014C
:100400000197F1F78C010B8F1C8F898D9A8D0197C5
:10041000898F9A8F898D9A8D009751F717C06D89B2
:100420007E898F89988D0E94210CDC01CB01898FF8
:100430009A8F898D9A8D8D8F9E8F8D8D9E8D8C013B
:10044000C8010197F1F78C010D8F1E8F8A818730CB
:1004500009F485C0898180950E94DF0080E090E0EA
:10046000A8ECB1E48F8F98A3A9A3BAA36F8D78A14C
:1004700089A19AA120E030E04AEF55E40E94F50DF1
:10048000DC01CB018BA39CA3ADA3BEA311E06BA1A8
:100490007CA18DA19EA120E030E040E85FE30E94B6
:1004A0004F0F88230CF010E0112329F081E090E039
:1004B0008FA398A746C011E06BA17CA18DA19EA13E
:1004C00020E03FEF4FE757E40E94EF0E18160CF0C4
:1004D00010E0112361F16F8D78A189A19AA120E02C
:1004E00030E040E251E40E94F50DDC01CB01BC019B
:1004F000CD010E94210CDC01CB018FA398A712C073
:1005000080E293E089A79AA789A59AA58C01C801E2
:100510000197F1F78C0109A71AA78FA198A5019758
:100520008FA398A78FA198A5009751F77ECE6BA1B6
:100530007CA18DA19EA10E94210CDC01CB018FA387
:1005400098A78FA198A58BA79CA78BA59CA58C018C
:10055000C8010197F1F78C010BA71CA766CE00001C
:10056000AC96CDBFDEBFCF91DF911F910F91089563
:10057000DF93CF93CDB7DEB780E896E0FC01108221
:1005800080E896E028E1FC01208B80E896E028E1F5
:10059000FC01218B80E896E028E1FC01228B80E8B9
:1005A00096E028E1FC01238BCF91DF910895DF9342
:1005B000CF93CDB7DEB780E296E020EFFC01208339
:1005C000CF91DF910895DF93CF93CDB7DEB70E942F
:1005D000B8020E94D702CF91DF910895DF93CF93A5
:1005E000CDB7DEB78FEF92E0FC0119950E94A70905
:1005F00082EC99E0FC0119950E94B802FFCF0F939D
:100600001F93DF93CF93CDB7DEB7C057D040CDBF98
:10061000DEBF0E94A70983E40E94870980E090E082
:10062000A8ECB2E489839A83AB83BC8369817A8125
:100630008B819C8120E030E04AEF55E40E94F50D6B
:10064000DC01CB018D839E83AF83B88711E06D8180
:100650007E818F81988520E030E040E85FE30E9452
:100660004F0F88230CF010E0112329F081E090E077
:1006700089879A8746C011E06D817E818F81988538
:1006800020E03FEF4FE757E40E94EF0E18160CF002
:1006900010E0112361F169817A818B819C8120E0D6
:1006A00030E040E251E40E94F50DDC01CB01BC01D9
:1006B000CD010E94210CDC01CB0189879A8712C0F1
:1006C00080E293E08B879C878B859C858C01C80199
:1006D0000197F1F78C010B871C8789859A85019713
:1006E00089879A8789859A85009751F717C06D8108
:1006F0007E818F8198850E94210CDC01CB01898746
:100700009A8789859A858D879E878D859E858C01A0
:10071000F8013197F1F78F010D871E8788E40E9459
:10072000870980E090E0A8ECB2E48F87988BA98BD2
:10073000BA8B6F85788989899A8920E030E04AEF01
:1007400055E40E94F50DDC01CB018B8B9C8BAD8BAE
:10075000BE8B11E06B897C898D899E8920E030E019
:1007600040E85FE30E944F0F88230CF010E0112354
:1007700029F081E090E08F8B988F46C011E06B8963
:100780007C898D899E8920E03FEF4FE757E40E94E6
:10079000EF0E18160CF010E0112361F16F857889C7
:1007A00089899A8920E030E040E251E40E94F50D09
:1007B000DC01CB01BC01CD010E94210CDC01CB018D
:1007C0008F8B988F12C080E293E0898F9A8F898DEA
:1007D0009A8D8C01C8010197F1F78C01098F1A8F4E
:1007E0008F89988D01978F8B988F8F89988D00971F
:1007F00051F717C06B897C898D899E890E94210CD5
:10080000DC01CB018F8B988F8F89988D8B8F9C8F7C
:100810008B8D9C8D8C01F8013197F1F78F010B8F37
:100820001C8F81E40E94870980E090E0A8ECB2E48C
:100830008D8F9E8FAF8FB8A36D8D7E8D8F8D98A17C
:1008400020E030E04AEF55E40E94F50DDC01CB01D9
:1008500089A39AA3ABA3BCA311E069A17AA18BA140
:100860009CA120E030E040E85FE30E944F0F882326
:100870000CF010E0112329F081E090E08DA39EA3FD
:1008800046C011E069A17AA18BA19CA120E03FEFB5
:100890004FE757E40E94EF0E18160CF010E01123FA
:1008A00061F16D8D7E8D8F8D98A120E030E040E26A
:1008B00051E40E94F50DDC01CB01BC01CD010E9489
:1008C000210CDC01CB018DA39EA312C080E293E03A
:1008D0008FA398A78FA198A58C01C8010197F1F764
:1008E0008C010FA318A78DA19EA101978DA39EA394
:1008F0008DA19EA1009751F717C069A17AA18BA184
:100900009CA10E94210CDC01CB018DA39EA38DA193
:100910009EA189A79AA789A59AA58C01F80131976C
:10092000F1F78F0109A71AA782E50E94870980E0E5
:1009300090E0A8ECB2E48BA79CA7ADA7BEA76BA5DF
:100940007CA58DA59EA520E030E04AEF55E40E94ED
:10095000F50DDC01CB018FA798ABA9ABBAAB11E0C9
:100960006FA578A989A99AA920E030E040E85FE363
:100970000E944F0F88230CF010E0112329F081E032
:1009800090E08BAB9CAB46C011E06FA578A989A91C
:100990009AA920E03FEF4FE757E40E94EF0E1816A8
:1009A0000CF010E0112361F16BA57CA58DA59EA52F
:1009B00020E030E040E251E40E94F50DDC01CB0183
:1009C000BC01CD010E94210CDC01CB018BAB9CABA7
:1009D00012C080E293E08DAB9EAB8DA99EA98C01E5
:1009E000C8010197F1F78C010DAB1EAB8BA99CA937
:1009F00001978BAB9CAB8BA99CA9009751F717C0B3
:100A00006FA578A989A99AA90E94210CDC01CB01C4
:100A10008BAB9CAB8BA99CA98FAB98AF8FA998ADE2
:100A20008C01F8013197F1F78F010FAB18AF89EC0A
:100A300098E0FC01199580E56CE80E94700980E05F
:100A400090E0A8ECB2E489AF9AAFABAFBCAF69ADB0
:100A50007AAD8BAD9CAD20E030E04AEF55E40E94CA
:100A6000F50DDC01CB019E01235C3F4FF901808332
:100A70009183A283B38311E0CE01CD96FC01608106
:100A800071818281938120E030E040E85FE30E9441
:100A90004F0F88230CF010E0112349F0CE018F5B3B
:100AA0009F4F21E030E0FC01208331836EC011E0D4
:100AB000CE01CD96FC01608171818281938120E01D
:100AC0003FEF4FE757E40E94EF0E18160CF010E0CE
:100AD000112309F449C069AD7AAD8BAD9CAD20E01E
:100AE00030E040E251E40E94F50DDC01CB018E01C3
:100AF0000F5B1F4FBC01CD010E94210CDC01CB011B
:100B0000F8018083918327C0CE018D5B9F4F20E247
:100B100033E0FC0120833183CE018D5B9F4FFC01CC
:100B2000808191818C01C8010197F1F78C01CE0180
:100B30008D5B9F4FFC0100831183CE018F5B9F4F24
:100B40009E012F5B3F4FF9012081318121503040C0
:100B5000FC0120833183CE018F5B9F4FFC0180819C
:100B60009181009789F62EC08E010F5B1F4FCE0139
:100B7000CD96FC0160817181828193810E94210C5C
:100B8000DC01CB01F80180839183CE018B5B9F4F09
:100B90009E012F5B3F4FF90120813181FC012083B1
:100BA0003183CE018B5B9F4FFC01808191818C0151
:100BB000C8010197F1F78C01CE018B5B9F4FFC01BF
:100BC000008311838FE46CE80E9470099E01295B09
:100BD0003F4F80E090E0A8ECB2E4F901808391837C
:100BE000A283B3838E01055B1F4FCE01895B9F4FAC
:100BF000FC01608171818281938120E030E04AEFC5
:100C000055E40E94F50DDC01CB01F801808391834E
:100C1000A283B383CE01855B9F4F11E0FC0160810D
:100C200071818281938120E030E040E85FE30E949F
:100C30004F0F88230CF010E0112349F0CE01815BA7
:100C40009F4F21E030E0FC012083318374C0CE014E
:100C5000855B9F4F11E0FC016081718182819381EE
:100C600020E03FEF4FE757E40E94EF0E18160CF01C
:100C700010E0112309F44DC0CE01895B9F4FFC01A8
:100C8000608171818281938120E030E040E251E413
:100C90000E94F50DDC01CB018E01015B1F4FBC01F1
:100CA000CD010E94210CDC01CB01F80180839183EE
:100CB00027C0CE018F5A9F4F20E233E0FC012083F2
:100CC0003183CE018F5A9F4FFC01808191818C012D
:100CD000C8010197F1F78C01CE018F5A9F4FFC019B
:100CE00000831183CE01815B9F4F9E01215B3F4FAB
:100CF000F9012081318121503040FC012083318372
:100D0000CE01815B9F4FFC0180819181009789F624
:100D10002FC08E01015B1F4FCE01855B9F4FFC01F1
:100D200060817181828193810E94210CDC01CB0161
:100D3000F80180839183CE018D5A9F4F9E01215BE4
:100D40003F4FF90120813181FC0120833183CE01A5
:100D50008D5A9F4FFC01808191818C01C8010197C0
:100D6000F1F78C01CE018D5A9F4FFC010083118356
:100D700083E56CE80E9470099E012B5A3F4F80E08A
:100D800090E0A8ECB2E4F90180839183A283B3835D
:100D90008E01075A1F4FCE018B5A9F4FFC01608175
:100DA00071818281938120E030E04AEF55E40E9416
:100DB000F50DDC01CB01F80180839183A283B3831D
:100DC000CE01875A9F4F11E0FC01608171818281C1
:100DD000938120E030E040E85FE30E944F0F8823DA
:100DE0000CF010E0112349F0CE01835A9F4F21E00F
:100DF00030E0FC012083318374C0CE01875A9F4FBD
:100E000011E0FC01608171818281938120E03FEFDC
:100E10004FE757E40E94EF0E18160CF010E0112374
:100E200009F44DC0CE018B5A9F4FFC016081718146
:100E30008281938120E030E040E251E40E94F50D90
:100E4000DC01CB018E01035A1F4FBC01CD010E9472
:100E5000210CDC01CB01F8018083918327C0CE01F6
:100E6000815A9F4F20E233E0FC0120833183CE0181
:100E7000815A9F4FFC01808191818C01C8010197AB
:100E8000F1F78C01CE01815A9F4FFC010083118341
:100E9000CE01835A9F4F9E01235A3F4FF901208173
:100EA000318121503040FC0120833183CE01835AAF
:100EB0009F4FFC0180819181009789F62FC08E01A0
:100EC000035A1F4FCE01875A9F4FFC0160817181E9
:100ED000828193810E94210CDC01CB01F801808387
:100EE0009183CE018F599F4F9E01235A3F4FF901A5
:100EF00020813181FC0120833183CE018F599F4FA6
:100F0000FC01808191818C01C8010197F1F78C016E
:100F1000CE018F599F4FFC010083118389EC98E02B
:100F2000FC01199589E00E94610989EA98E0FC01B9
:100F300019959E012D593F4F80E090E0AAEFB3E450
:100F4000F90180839183A283B3838E0109591F4FD6
:100F5000CE018D599F4FFC01608171818281938107
:100F600020E030E04AEF55E40E94F50DDC01CB01B2
:100F7000F80180839183A283B383CE0189599F4F67
:100F800011E0FC01608171818281938120E030E079
:100F900040E85FE30E944F0F88230CF010E011231C
:100FA00049F0CE0185599F4F21E030E0FC012083BC
:100FB000318374C0CE0189599F4F11E0FC016081DB
:100FC00071818281938120E03FEF4FE757E40E94D7
:100FD000EF0E18160CF010E0112309F44DC0CE01ED
:100FE0008D599F4FFC01608171818281938120E046
:100FF00030E040E251E40E94F50DDC01CB018E01AE
:1010000005591F4FBC01CD010E94210CDC01CB0111
:10101000F8018083918327C0CE0183599F4F20E23E
:1010200033E0FC0120833183CE0183599F4FFC01C3
:10103000808191818C01C8010197F1F78C01CE016B
:1010400083599F4FFC0100831183CE0185599F4F27
:101050009E0125593F4FF9012081318121503040B7
:10106000FC0120833183CE0185599F4FFC01808193
:101070009181009789F62FC08E0105591F4FCE012F
:1010800089599F4FFC0160817181828193810E9407
:10109000210CDC01CB01F80180839183CE018159C1
:1010A0009F4F9E0125593F4FF90120813181FC015D
:1010B00020833183CE0181599F4FFC018081918132
:1010C0008C01C8010197F1F78C01CE0181599F4F26
:1010D000FC010083118380E00E94610989EC98E0A3
:1010E000FC0119958FE798E0FC011995C059DF4F75
:1010F000CDBFDEBFCF91DF911F910F910895DF9398
:10110000CF93CDB7DEB780E09DE028E4FC012187D6
:1011100080E09DE029E4FC01218780E09DE024E55A
:10112000FC01218780E09DE020E2FC01218780E036
:101130009DE023E4FC01218780E09DE023E5FC01A4
:10114000218780E09DE021E3FC012187CF91DF91A1
:101150000895DF93CF93CDB7DEB780E09DE022E422
:10116000FC01218780E09DE02CE4FC01218780E0E8
:101170009DE029E4FC01218780E09DE02EE4FC0154
:10118000218780E09DE02BE4FC012187CF91DF9156
:1011900008950F931F93DF93CF93CDB7DEB72E97AC
:1011A000CDBFDEBF80E09DE024E0FC01208380E035
:1011B00090E0A8ECB2E489839A83AB83BC83698115
:1011C0007A818B819C8120E030E04AEF55E40E94D7
:1011D000F50DDC01CB018D839E83AF83B88711E0D1
:1011E0006D817E818F81988520E030E040E85FE36B
:1011F0000E944F0F88230CF010E0112329F081E0AA
:1012000090E089879A8746C011E06D817E818F8149
:10121000988520E03FEF4FE757E40E94EF0E181645
:101220000CF010E0112361F169817A818B819C813E
:1012300020E030E040E251E40E94F50DDC01CB01FA
:10124000BC01CD010E94210CDC01CB0189879A876A
:1012500012C080E293E08B879C878B859C858C01F4
:10126000C8010197F1F78C010B871C8789859A8546
:10127000019789879A8789859A85009751F717C0C2
:101280006D817E818F8198850E94210CDC01CB01CC
:1012900089879A8789859A858D879E878D859E8582
:1012A0008C01F8013197F1F78F010D871E870E949D
:1012B000A7092E96CDBFDEBFCF91DF911F910F9171
:1012C0000895DF93CF930F92CDB7DEB7898380E087
:1012D0009DE02981FC0125830F90CF91DF91089536
:1012E000DF93CF930F920F92CDB7DEB789836A83D6
:1012F00080E09DE02A81FC01208780E09DE029813B
:10130000FC0121870F900F90CF91DF910895DF931B
:10131000CF930F92CDB7DEB7898380E09DE029811E
:10132000FC0121870F90CF91DF910895DF93CF9338
:101330000F920F92CDB7DEB789839A838981805D42
:101340000E9487090F900F90CF91DF910895DF934E
:10135000CF93CDB7DEB780E490E021E0FC0123839A
:1013600080E09DE02FE3FC01228380E09DE02CE8FB
:10137000FC01208780E09DE022E8FC012083CF91E2
:10138000DF910895DF93CF93CDB7DEB780E09DE086
:1013900020E7FC01218380E09DE02AE1FC0123831A
:1013A00080EA90E022E0FC0122837894CF91DF91E3
:1013B00008951F920F920FB60F9200903B000F926C
:1013C00011242F933F934F935F936F937F938F934A
:1013D0009F93AF93BF93EF93FF93DF93CF93CDB7DB
:1013E000DEB78BE09AE0FC011995CF91DF91FF9178
:1013F000EF91BF91AF919F918F917F916F915F918D
:101400004F913F912F910F9000923B000F900FBE94
:101410000F901F901895DF93CF93CDB7DEB70E9442
:10142000F00080930C2080E09DE024EAFC012087FE
:1014300080910C208D3009F0FEC0809108209091A1
:101440000920A0910A20B0910B200196A11DB11D89
:101450008093082090930920A0930A20B0930B203A
:1014600080E09DE024EAFC01208780910820909193
:101470000920A0910A20B0910B202AE030E040E042
:1014800050E0BC01CD010E946111DC01CB010E9442
:10149000960980E09DE020EAFC01208780910820E9
:1014A00090910920A0910A20B0910B2024E630E011
:1014B00040E050E0BC01CD010E946111DC01CB0194
:1014C0002AE030E040E050E0BC01CD010E94611113
:1014D000DA01C9010E94960980E09DE02CE9FC0137
:1014E00020878091082090910920A0910A20B09136
:1014F0000B2028EE33E040E050E0BC01CD010E941B
:101500006111DC01CB0124E630E040E050E0BC0199
:10151000CD010E946111DA01C9010E94960980E0A3
:101520009DE028E9FC012087809108209091092006
:10153000A0910A20B0910B2020E137E240E050E07A
:10154000BC01CD010E946111DC01CB0128EE33E02A
:1015500040E050E0BC01CD010E946111DA01C901F7
:101560000E94960980E09DE024E9FC01208780919B
:10157000082090910920A0910A20B0910B2020EA28
:1015800036E841E050E0BC01CD010E946111DC0170
:10159000CB0120E137E240E050E0BC01CD010E94E8
:1015A0006111DA01C9010E94960980E09DE020E9FD
:1015B000FC0120878091082090910920A0910A20A9
:1015C000B0910B2020E432E44FE050E0BC01CD01AB
:1015D0000E946111DC01CB0120EA36E841E050E0D5
:1015E000BC01CD010E946111DA01C9010E94960976
:1015F00080E09DE02CE8FC012087809108209091FC
:101600000920A0910A20B0910B2020E836E948E992
:1016100050E0BC01CD010E946111DC01CB0120E44E
:1016200032E44FE050E0BC01CD010E946111DA01CB
:10163000C9010E94960980910C208E3009F0FEC0ED
:101640008091082090910920A0910A20B0910B2050
:101650000197A109B1098093082090930920A093D4
:101660000A20B0930B2080E09DE024EAFC01208753
:101670008091082090910920A0910A20B0910B2020
:101680002AE030E040E050E0BC01CD010E94611151
:10169000DC01CB010E94960980E09DE020EAFC017C
:1016A00020878091082090910920A0910A20B09174
:1016B0000B2024E630E040E050E0BC01CD010E9468
:1016C0006111DC01CB012AE030E040E050E0BC01D8
:1016D000CD010E946111DA01C9010E94960980E0E2
:1016E0009DE02CE9FC012087809108209091092041
:1016F000A0910A20B0910B2028EE33E040E050E0AA
:10170000BC01CD010E946111DC01CB0124E630E077
:1017100040E050E0BC01CD010E946111DA01C90135
:101720000E94960980E09DE028E9FC0120878091D5
:10173000082090910920A0910A20B0910B2020E16F
:1017400037E240E050E0BC01CD010E946111DC01B4
:10175000CB0128EE33E040E050E0BC01CD010E9417
:101760006111DA01C9010E94960980E09DE024E937
:10177000FC0120878091082090910920A0910A20E7
:10178000B0910B2020EA36E841E050E0BC01CD01E9
:101790000E946111DC01CB0120E137E240E050E022
:1017A000BC01CD010E946111DA01C9010E949609B4
:1017B00080E09DE020E9FC01208780910820909145
:1017C0000920A0910A20B0910B2020E432E44FE0E0
:1017D00050E0BC01CD010E946111DC01CB0120EA87
:1017E00036E841E050E0BC01CD010E946111DA0110
:1017F000C9010E94960980E09DE02CE8FC01208749
:101800008091082090910920A0910A20B0910B208E
:1018100020E836E948E950E0BC01CD010E946111A1
:10182000DC01CB0120E432E44FE050E0BC01CD010B
:101830000E946111DA01C9010E949609CF91DF91DE
:101840000895EF92FF920F931F937B018C0120E08C
:1018500030E040E05FE40E941F0F87FD11C0C80127
:10186000B70120E030E040E05FE40E94C40D0E9438
:101870007F0F9B01AC01205030404040504806C0D3
:10188000C801B7010E947F0F9B01AC01B901CA01D9
:101890001F910F91FF90EF900895A0E0B0E0E3E575
:1018A000FCE00C94A211FC01EA018081823008F472
:1018B00038C1DB019C91923008F430C1843059F476
:1018C000943009F02EC1918111968C91119798173F
:1018D00009F021C126C1943009F420C19230B1F43D
:1018E000823009F01EC1CA01AF0128E0DA010D9073
:1018F000AD01DC010D92CD012150C1F7DB01119644
:101900008C9111979181892389830AC1823009F4CE
:1019100005C1C280D380DB0112966D907C90139735
:1019200024813581468157811496ED90FD900D916B
:101930001C911797C601861997095C0197FF04C08F
:10194000AA24BB24A81AB90AB0E2AB16B1040CF061
:1019500061C0181619066CF5370148010A2C04C03D
:1019600096948794779467940A94D2F781E090E0F4
:10197000A0E0B0E00A2C04C0880F991FAA1FBB1F6B
:101980000A94D2F70197A109B1098E219F21A023C2
:10199000B123EE24FF248701E3940097A105B1054C
:1019A00019F4EE24FF248701E628F72808291929CD
:1019B0003CC00097D1F1CA0CDB1C39014A010A2C4A
:1019C00004C096948794779467940A94D2F781E040
:1019D00090E0A0E0B0E00A2C04C0880F991FAA1F75
:1019E000BB1F0A94D2F70197A109B109822393235F
:1019F000A423B52321E030E040E050E00097A105AA
:101A0000B10519F420E030E0A90126293729482939
:101A100059290BC06C147D0424F4EE24FF248701A3
:101A200004C0630120E030E0A9018181FB019181C4
:101A3000891709F445C0882349F0D801C701821BE2
:101A4000930BA40BB50B9C01AD0104C02E193F09EB
:101A5000400B510B57FD04C01982CA82DB820BC0B8
:101A600081E08983CA82DB8250954095309521952B
:101A70003F4F4F4F5F4F2C833D834E835F830DC09D
:101A8000880F991FAA1FBB1F8C839D83AE83BF83C2
:101A90008A819B8101978A839B838C819D81AE8102
:101AA000BF819C01AD0121503040404050402F3F4C
:101AB000EFEF3E07EFEF4E07EFE35E0708F30BC0D3
:101AC0008983CA82DB822E0D3F1D401F511F2C834C
:101AD0003D834E835F8383E088832C813D814E81EB
:101AE0005F8157FF1DC0DA01C90181709070A0703D
:101AF000B0705695479537952795822B932BA42B3D
:101B0000B52B8C839D83AE83BF838A819B81019695
:101B10008A839B8305C0E0E0F0E203C0FB0101C0C3
:101B2000FE01CF01CDB7DEB7EEE00C94BB11A0E211
:101B3000B0E0EDE9FDE00C94AA1169837A838B8310
:101B40009C832D833E834F83588789E0E82EF12CB8
:101B5000EC0EFD1ECE010196B7010E949F108E0172
:101B60000F5E1F4FCE010596B8010E949F10C7015E
:101B7000B801AE01475E5F4F0E944D0C0E94D10F2D
:101B8000A096E6E00C94C311A0E2B0E0EAECFDE020
:101B90000C94AA1169837A838B839C832D833E8363
:101BA0004F8358878E01075F1F4FCE010196B80102
:101BB0000E949F1091E1E92EF12CEC0EFD1ECE014A
:101BC0000596B7010E949F108A8991E089278A8B28
:101BD000C801B701AE01475E5F4F0E944D0C0E94E5
:101BE000D10FA096E6E00C94C311A0E2B0E0EBEFB9
:101BF000FDE00C949E1169837A838B839C832D83F3
:101C00003E834F835887CE010196BE01675F7F4FA9
:101C10000E949F10CE010596BE016F5E7F4F0E940D
:101C20009F109985923078F089898230C0F0943085
:101C300019F4823041F4CBC0843019F4923079F435
:101C4000C6C0923051F481E02A859A89291709F497
:101C500080E08A87CE010996BCC0823051F481E0D1
:101C60002A859A89291709F480E08A8BCE0141964A
:101C7000B0C06D847E848F849888ED88FE880F893B
:101C8000188DE0E2F0E080E090E0DC01AA24BB24C3
:101C9000650120E030E0A901B30161707070611549
:101CA0007105D1F02E0D3F1D401F511F150126015A
:101CB000280E391E4A1E5B1E81E090E0A0E0B0E0D5
:101CC0002E153F054007510718F080E090E0DC0139
:101CD000820D931DA41DB51DAA0CBB1CCC1CDD1CC4
:101CE00017FF09C061E0262E312C412C512CA2286F
:101CF000B328C428D528319749F0EE0CFF1C001FEB
:101D0000111F9694879477946794C6CF6B897C89CA
:101D1000EB85FC856E0F7F1F6E5F7F4F6B8F7C8F17
:101D200061E0EA857A89E71709F460E06A8F6B8DD4
:101D30007C8D10C0FC01E170F070309729F0569551
:101D40004795379527955068B695A79597958795A8
:101D50006F5F7F4FB7FDEECF0CC0880F991FAA1F92
:101D6000BB1F57FD8160220F331F441F551F615059
:101D700070408030E0E09E07E0E0AE07E0E4BE07A0
:101D800060F36B8F7C8F6FE7E62EF12C012D112D08
:101D9000E822F9220A231B2360E4E616F104010578
:101DA000110561F487FD0AC0211531054105510572
:101DB00029F0805C9F4FAF4FBF4F80788D8F9E8FF3
:101DC000AF8FB8A383E0898FCE01499602C080E02F
:101DD00090E20E94D10FA096E2E10C94B711A8E125
:101DE000B0E0E5EFFEE00C94AA1169837A838B835F
:101DF0009C832D833E834F8358878E01075F1F4F3F
:101E0000CE010196B8010E949F1081E1E82EF12CCD
:101E1000EC0EFD1ECE010596B7010E949F1089852C
:101E2000823040F08989823028F0C801B7010E94D1
:101E3000081101C08FEF6896E6E00C94C311A8E189
:101E4000B0E0E5E2FFE00C94AA1169837A838B830A
:101E50009C832D833E834F8358878E01075F1F4FDE
:101E6000CE010196B8010E949F1081E1E82EF12C6D
:101E7000EC0EFD1ECE010596B7010E949F108985CC
:101E8000823040F08989823028F0C801B7010E9471
:101E9000081101C08FEF6896E6E00C94C311A8E129
:101EA000B0E0E5E5FFE00C94AA1169837A838B83A7
:101EB0009C832D833E834F8358878E01075F1F4F7E
:101EC000CE010196B8010E949F1081E1E82EF12C0D
:101ED000EC0EFD1ECE010596B7010E949F1089856C
:101EE000823040F08989823028F0C801B7010E9411
:101EF000081101C081E06896E6E00C94C311ACE0E3
:101F0000B0E0E5E8FFE00C94AE1169837A838B833F
:101F10009C83CE010196BE016B5F7F4F0E949F1094
:101F20008D81823081F1823070F1843021F48E8194
:101F3000882369F10AC02F81388537FD24C06E815E
:101F40002F3131053CF0662311F120E030E040E014
:101F500050E821C08EE190E0821B930B29853A85E1
:101F60004B855C8504C056954795379527958A958E
:101F7000D2F7662381F050954095309521953F4FDB
:101F80004F4F5F4F08C020E030E0A90104C02FEFA1
:101F90003FEF4FEF5FE7B901CA012C96E2E00C94E6
:101FA000C711EF92FF920F931F93CF93DF93FC0122
:101FB000248135814681578161818081823020F47E
:101FC0004061EFEFF0E0A3C0843009F49BC08230A1
:101FD00009F492C0211531054105510509F48FC05E
:101FE0000280F381E02D8FEFE238F8070CF05AC041
:101FF000C2E8DFEFCE1BDF0BCA31D1056CF57901EA
:102000008A010C2E04C016950795F794E7940A945C
:10201000D2F781E090E0A0E0B0E00C2E04C0880F81
:10202000991FAA1FBB1F0A94D2F70197A109B109F2
:1020300082239323A423B52321E030E040E050E045
:102040000097A105B10519F420E030E0A9012E297F
:102050003F29402B512B03C020E030E0A901DA01D9
:10206000C9018F779070A070B07080349105A10580
:10207000B10539F427FF09C0205C3F4F4F4F5F4F38
:1020800004C0215C3F4F4F4F5F4FE1E0F0E0203054
:1020900080E0380780E0480780E4580728F5E0E052
:1020A000F0E022C0E038F1056CF5E158FF4FDA01AD
:1020B000C9018F779070A070B07080349105A10530
:1020C000B10539F427FF09C0205C3F4F4F4F5F4FE8
:1020D00004C0215C3F4F4F4F5F4F57FF05C05695DF
:1020E000479537952795319687E0569547953795CB
:1020F00027958A95D1F70BC0E0E0F0E005C0E0E05D
:10210000F0E005C0EFEFF0E020E030E0A9018E2F15
:10211000879588278795942F9F776795662767957A
:10212000E695E22EA92FA82BFE2FF62B622F732FF8
:102130008A2F9F2FCDB7DEB7E6E00C94C311DC01E8
:10214000FB012C9111963C91119712968C9112974C
:10215000482F4F7750E0982F991F9927991F139672
:102160006C911397862F880F892B90E0661F662746
:10217000661F6183009739F5211531054105510529
:1021800011F482E029C082E89FEF8283938367E0A5
:10219000220F331F441F551F6A95D1F783E08083B8
:1021A00009C0220F331F441F551F8281938101975D
:1021B00082839383203080E0380780E0480780E402
:1021C000580778F320C08F3F910579F42115310528
:1021D0004105510519F484E08083089544FF03C04C
:1021E00081E0808310C010820EC08F5790408283A0
:1021F000938383E0808387E0220F331F441F551FA2
:102200008A95D1F750642483358346835783089594
:10221000FC01DB019081923008F449C08C9182303E
:1022200008F445C0943051F461818430B1F51196C1
:102230002C91119730E0261B310941C0843021F0E8
:10224000923041F48230B1F111968C91119788232C
:10225000A1F12DC06181823001F111968C9111970D
:102260006817D9F42281338112968D919C9113972E
:102270008217930794F028173907BCF02481358121
:102280004681578114968D919D910D90BC91A02D02
:1022900082179307A407B50718F4662341F00DC011
:1022A000281739074A075B0728F4662331F021E035
:1022B00030E005C020E030E002C02FEF3FEFC90161
:1022C000089597FB092E05260ED057FD04D014D093
:1022D0000AD0001C38F450954095309521953F4F19
:1022E0004F4F5F4F0895F6F79095809570956195E3
:1022F0007F4F8F4F9F4F0895A1E21A2EAA1BBB1B41
:10230000FD010DC0AA1FBB1FEE1FFF1FA217B307C1
:10231000E407F50720F0A21BB30BE40BF50B661FD7
:10232000771F881F991F1A9469F76095709580959B
:1023300090959B01AC01BD01CF0108952F923F9272
:102340004F925F926F927F928F929F92AF92BF92C5
:10235000CF92DF92EF92FF920F931F93CF93DF9371
:10236000CDB7DEB7CA1BDB0BCDBFDEBF19942A8801
:10237000398848885F846E847D848C849B84AA8499
:10238000B984C884DF80EE80FD800C811B81AA8126
:10239000B981CE0FD11DCDBFDEBFED010895F894F8
:0223A000FFCF6D
:0823A200000000000000000033
:00000001FF
