:100000000C94A2000C94AE000C94AE000C94AE00C4
:100010000C94AE000C94AE000C94AE000C94AE00A8
:100020000C94AE000C94AE000C94AE000C94AE0098
:100030000C94AE000C94AE000C94AE000C94AE0088
:100040000C94AE000C94AE000C94AE000C94AE0078
:100050000C94AE000C94AE000C94AE000C94AE0068
:100060000C94AE000C94AE000C94AE000C94AE0058
:100070000C94AE000C94AE000C94AE000C94AE0048
:100080000C94AE000C94AE000C94AE000C94AE0038
:100090000C94AE000C94AE000C94AE000C94AE0028
:1000A0000C94AE000C94AE000C94AE000C94AE0018
:1000B0000C94AE000C94AE000C94AE000C94AE0008
:1000C0000C94AE000C94AE000C94AE000C94AE00F8
:1000D0000C94AE000C94AE000C94AE000C94AE00E8
:1000E0000C94AE000C94AE000C94AE000C94AE00D8
:1000F0000C94AE000C94AE000C94AE000C94AE00C8
:100100000C94AE000C94AE000C94AE000C94AE00B7
:100110000C94AE000C94AE000C94AE000C94AE00A7
:100120000C94AE000C94AE000C94AE000C94AE0097
:100130000C94AE000C94AE000C94AE000C94AE0087
:100140000C94AE0011241FBECFEFDFE3DEBFCDBFA6
:1001500000E00CBF0E94B0000C9428010C94000039
:100160001F930E94CA000E9422010E94E4000BC05B
:100170008FE493EC0197F1F700C000000E94DD00CE
:100180000E94D900182F173099F787E090E00E945D
:10019000D400FBCFE0E5F0E082E08083918198ED30
:1001A00094BF8093400008958295807F80932406B9
:1001B0000895809188068F700895809188068295B1
:1001C000807F80932406089580E0909188069F7038
:1001D0009E3059F42FEF30E742E02150304040404C
:1001E000E1F700C000008F5F0FC09D3059F48150CF
:1001F0002FEF30E742E0215030404040E1F700C0AF
:10020000000002C0973081F0982F90959295907FD2
:10021000909324062FEF30E742E0215030404040D9
:10022000E1F700C00000D1CF0895E0E8F6E01082C9
:1002300088E1808B818B828B838B089580EF809304
:10024000200608950E94150180EF809320060895EE
:04025000F894FFCF50
:00000001FF
