:100000000C94A2000C94C3000C94C3000C94C30085
:100010000C94C3000C94C3000C94C3000C94C30054
:100020000C94C3000C94C3000C94C3000C94C30044
:100030000C94C3000C94C3000C94C3000C94C30034
:100040000C94C3000C94C3000C94C3000C94C30024
:100050000C94C3000C94C3000C94C3000C94C30014
:100060000C94C3000C94C3000C94C3000C94C30004
:100070000C94C3000C94C3000C94C3000C94C300F4
:100080000C94C3000C94C3000C94C3000C940E0C8D
:100090000C94C3000C94C3000C94C3000C94C300D4
:1000A0000C94C3000C94C3000C94C3000C94C300C4
:1000B0000C94DE0B0C94C3000C94C3000C94C3008E
:1000C0000C94C3000C94C3000C94C3000C94C300A4
:1000D0000C94C3000C94C3000C94C3000C94C30094
:1000E0000C94C3000C94C3000C94C3000C94C30084
:1000F0000C94C3000C94C3000C94C3000C94C30074
:100100000C94C3000C94C3000C94C3000C94C30063
:100110000C94C3000C94C3000C94C3000C94C30053
:100120000C94C3000C94C3000C94C3000C94C30043
:100130000C94C3000C94C3000C94C3000C94C30033
:100140000C94C30011241FBECFEFDFE3DEBFCDBF91
:1001500000E00CBF10E2A0E0B0E2E8E4F6E200E06C
:100160000BBF02C007900D92AA30B107D9F710E279
:10017000AAE0B0E201C01D92A031B107E1F70E94F0
:100180003E0C0C9422130C940000DF93CF93CDB758
:10019000DEB780E590E022E0FC01208380E590E07E
:1001A000FC01818184E390E028EDFC01208380E460
:1001B00090E022E0FC012083CF91DF910895DF934E
:1001C000CF930F92CDB7DEB7898384E296E0298181
:1001D0002295207FFC0120830F90CF91DF9108951D
:1001E000DF93CF930F92CDB7DEB788E896E0FC019E
:1001F00080818F70898389810F90CF91DF910895DD
:10020000DF93CF93CDB7DEB70E94F0000E94DF00EE
:10021000CF91DF9108950F931F93DF93CF93CDB7C5
:10022000DEB7AC97CDBFDEBF19820E94F0008A8393
:100230008A818E3009F083C080E090E0A8ECB1E4C0
:100240008B839C83AD83BE836B817C818D819E81FA
:1002500020E030E04AE753E40E94150FDC01CB01B7
:100260008F839887A987BA8711E06F817885898500
:100270009A8520E030E040E85FE30E946F10882319
:100280000CF010E0112329F081E090E08B879C872F
:1002900046C011E06F81788589859A8520E03FEF1F
:1002A0004FE757E40E940F1018160CF010E01123CE
:1002B00061F16B817C818D819E8120E030E040E2A4
:1002C00051E40E94150FDC01CB01BC01CD010E945D
:1002D000410DDC01CB018B879C8712C089E190E046
:1002E0008D879E878D859E858C01C8010197F1F7CA
:1002F0008C010D871E878B859C8501978B879C873A
:100300008B859C85009751F717C06F81788589850B
:100310009A850E94410DDC01CB018B879C878B85E0
:100320009C858F87988B8F8598898C01C801019750
:10033000F1F78C010F87188B89818F5F89838A8100
:100340008D3009F083C089818150898380E090E0FD
:10035000A8ECB1E4898B9A8BAB8BBC8B69897A89C9
:100360008B899C8920E030E04AE753E40E94150F16
:10037000DC01CB018D8B9E8BAF8BB88F11E06D892B
:100380007E898F89988D20E030E040E85FE30E940D
:100390006F1088230CF010E0112329F081E090E029
:1003A000898F9A8F46C011E06D897E898F89988DDB
:1003B00020E03FEF4FE757E40E940F1018160CF0B3
:1003C00010E0112361F169897A898B899C8920E089
:1003D00030E040E251E40E94150FDC01CB01BC018A
:1003E000CD010E94410DDC01CB01898F9A8F12C093
:1003F00089E190E08B8F9C8F8B8D9C8D8C01C80147
:100400000197F1F78C010B8F1C8F898D9A8D0197C5
:10041000898F9A8F898D9A8D009751F717C06D89B2
:100420007E898F89988D0E94410DDC01CB01898FD7
:100430009A8F898D9A8D8D8F9E8F8D8D9E8D8C013B
:10044000C8010197F1F78C010D8F1E8F8A818730CB
:1004500009F485C0898180950E94DF0080E090E0EA
:10046000A8ECB1E48F8F98A3A9A3BAA36F8D78A14C
:1004700089A19AA120E030E04AE753E40E94150FD9
:10048000DC01CB018BA39CA3ADA3BEA311E06BA1A8
:100490007CA18DA19EA120E030E040E85FE30E94B6
:1004A0006F1088230CF010E0112329F081E090E018
:1004B0008FA398A746C011E06BA17CA18DA19EA13E
:1004C00020E03FEF4FE757E40E940F1018160CF0A2
:1004D00010E0112361F16F8D78A189A19AA120E02C
:1004E00030E040E251E40E94150FDC01CB01BC0179
:1004F000CD010E94410DDC01CB018FA398A712C052
:1005000089E190E089A79AA789A59AA58C01C801DD
:100510000197F1F78C0109A71AA78FA198A5019758
:100520008FA398A78FA198A5009751F77ECE6BA1B6
:100530007CA18DA19EA10E94410DDC01CB018FA366
:1005400098A78FA198A58BA79CA78BA59CA58C018C
:10055000C8010197F1F78C010BA71CA766CE00001C
:10056000AC96CDBFDEBFCF91DF911F910F91089563
:10057000DF93CF93CDB7DEB780E896E0FC01108221
:1005800080E896E028E1FC01208B80E896E028E1F5
:10059000FC01218B80E896E028E1FC01228B80E8B9
:1005A00096E028E1FC01238BCF91DF910895DF9342
:1005B000CF93CDB7DEB780E296E020EFFC01208339
:1005C000CF91DF910895DF93CF93CDB7DEB70E942F
:1005D000B8020E94D702CF91DF9108950F931F9325
:1005E000DF93CF93CDB7DEB7C057D040CDBFDEBFCE
:1005F0000E94960983E40E94760980E090E0A8ECCE
:10060000B2E489839A83AB83BC8369817A818B81CD
:100610009C8120E030E04AE753E40E94150FDC01A2
:10062000CB018D839E83AF83B88711E06D817E817E
:100630008F81988520E030E040E85FE30E946F10F2
:1006400088230CF010E0112329F081E090E08987E5
:100650009A8746C011E06D817E818F81988520E068
:100660003FEF4FE757E40E940F1018160CF010E010
:10067000112361F169817A818B819C8120E030E0D6
:1006800040E251E40E94150FDC01CB01BC01CD0119
:100690000E94410DDC01CB0189879A8712C089E154
:1006A00090E08B879C878B859C858C01C801019786
:1006B000F1F78C010B871C8789859A8501978987BB
:1006C0009A8789859A85009751F717C06D817E8139
:1006D0008F8198850E94410DDC01CB0189879A8723
:1006E00089859A858D879E878D859E858C01F801E9
:1006F0003197F1F78F010D871E8788E40E947609F4
:1007000080E090E0A8ECB2E48F87988BA98BBA8B3D
:100710006F85788989899A8920E030E04AE753E437
:100720000E94150FDC01CB018B8B9C8BAD8BBE8B9C
:1007300011E06B897C898D899E8920E030E040E85A
:100740005FE30E946F1088230CF010E0112329F062
:1007500081E090E08F8B988F46C011E06B897C8997
:100760008D899E8920E03FEF4FE757E40E940F10EC
:1007700018160CF010E0112361F16F8578898989D2
:100780009A8920E030E040E251E40E94150FDC013C
:10079000CB01BC01CD010E94410DDC01CB018F8B4F
:1007A000988F12C089E190E0898F9A8F898D9A8DF8
:1007B0008C01C8010197F1F78C01098F1A8F8F897D
:1007C000988D01978F8B988F8F89988D009751F70F
:1007D00017C06B897C898D899E890E94410DDC013F
:1007E000CB018F8B988F8F89988D8B8F9C8F8B8D62
:1007F0009C8D8C01F8013197F1F78F010B8F1C8FC5
:1008000081E40E94760980E090E0A8ECB2E48D8F4C
:100810009E8FAF8FB8A36D8D7E8D8F8D98A120E0B8
:1008200030E04AE753E40E94150FDC01CB0189A3B5
:100830009AA3ABA3BCA311E069A17AA18BA19CA14F
:1008400020E030E040E85FE30E946F1088230CF066
:1008500010E0112329F081E090E08DA39EA346C013
:1008600011E069A17AA18BA19CA120E03FEF4FE7A5
:1008700057E40E940F1018160CF010E0112361F1DC
:100880006D8D7E8D8F8D98A120E030E040E251E4A7
:100890000E94150FDC01CB01BC01CD010E94410D6E
:1008A000DC01CB018DA39EA312C089E190E08FA350
:1008B00098A78FA198A58C01C8010197F1F78C0129
:1008C0000FA318A78DA19EA101978DA39EA38DA113
:1008D0009EA1009751F717C069A17AA18BA19CA195
:1008E0000E94410DDC01CB018DA39EA38DA19EA191
:1008F00089A79AA789A59AA58C01F8013197F1F7E4
:100900008F0109A71AA782E50E94760980E090E08E
:10091000A8ECB2E48BA79CA7ADA7BEA76BA57CA54E
:100920008DA59EA520E030E04AE753E40E94150F14
:10093000DC01CB018FA798ABA9ABBAAB11E06FA5D7
:1009400078A989A99AA920E030E040E85FE30E94F5
:100950006F1088230CF010E0112329F081E090E063
:100960008BAB9CAB46C011E06FA578A989A99AA969
:1009700020E03FEF4FE757E40E940F1018160CF0ED
:1009800010E0112361F16BA57CA58DA59EA520E04B
:1009900030E040E251E40E94150FDC01CB01BC01C4
:1009A000CD010E94410DDC01CB018BAB9CAB12C091
:1009B00089E190E08DAB9EAB8DA99EA98C01C80109
:1009C0000197F1F78C010DAB1EAB8BA99CA9019788
:1009D0008BAB9CAB8BA99CA9009751F717C06FA557
:1009E00078A989A99AA90E94410DDC01CB018BABA2
:1009F0009CAB8BA99CA98FAB98AF8FA998AD8C01AC
:100A0000F8013197F1F78F010FAB18AF88EB98E041
:100A1000FC01199580E56CE80E945F0980E090E098
:100A2000A8ECB2E489AF9AAFABAFBCAF69AD7AAD19
:100A30008BAD9CAD20E030E04AE753E40E94150FF7
:100A4000DC01CB019E01235C3F4FF9018083918340
:100A5000A283B38311E0CE01CD96FC016081718148
:100A60008281938120E030E040E85FE30E946F10D4
:100A700088230CF010E0112349F0CE018F5B9F4FCB
:100A800021E030E0FC01208331836EC011E0CE0113
:100A9000CD96FC01608171818281938120E03FEFDE
:100AA0004FE757E40E940F1018160CF010E01123C6
:100AB00009F449C069AD7AAD8BAD9CAD20E030E062
:100AC00040E251E40E94150FDC01CB018E010F5B67
:100AD0001F4FBC01CD010E94410DDC01CB01F8018B
:100AE0008083918327C0CE018D5B9F4F29E130E049
:100AF000FC0120833183CE018D5B9F4FFC018081FF
:100B000091818C01C8010197F1F78C01CE018D5BB9
:100B10009F4FFC0100831183CE018F5B9F4F9E018D
:100B20002F5B3F4FF9012081318121503040FC0182
:100B300020833183CE018F5B9F4FFC0180819181A7
:100B4000009789F62EC08E010F5B1F4FCE01CD9608
:100B5000FC0160817181828193810E94410DDC01E1
:100B6000CB01F80180839183CE018B5B9F4F9E0167
:100B70002F5B3F4FF90120813181FC0120833183BC
:100B8000CE018B5B9F4FFC01808191818C01C8015C
:100B90000197F1F78C01CE018B5B9F4FFC01008325
:100BA00011838FE46CE80E945F099E01295B3F4F2F
:100BB00080E090E0A8ECB2E4F90180839183A28305
:100BC000B3838E01055B1F4FCE01895B9F4FFC01F4
:100BD000608171818281938120E030E04AE753E4B3
:100BE0000E94150FDC01CB01F80180839183A28361
:100BF000B383CE01855B9F4F11E0FC016081718161
:100C00008281938120E030E040E85FE30E946F1032
:100C100088230CF010E0112349F0CE01815B9F4F37
:100C200021E030E0FC012083318374C0CE01855B7C
:100C30009F4F11E0FC01608171818281938120E0EE
:100C40003FEF4FE757E40E940F1018160CF010E02A
:100C5000112309F44DC0CE01895B9F4FFC016081D7
:100C600071818281938120E030E040E251E40E9472
:100C7000150FDC01CB018E01015B1F4FBC01CD01C3
:100C80000E94410DDC01CB01F8018083918327C0D4
:100C9000CE018F5A9F4F29E130E0FC012083318340
:100CA000CE018F5A9F4FFC01808191818C01C80138
:100CB0000197F1F78C01CE018F5A9F4FFC01008301
:100CC0001183CE01815B9F4F9E01215B3F4FF90154
:100CD0002081318121503040FC0120833183CE01BD
:100CE000815B9F4FFC0180819181009789F62FC025
:100CF0008E01015B1F4FCE01855B9F4FFC01608120
:100D00007181828193810E94410DDC01CB01F80148
:100D100080839183CE018D5A9F4F9E01215B3F4F6F
:100D2000F90120813181FC0120833183CE018D5A6C
:100D30009F4FFC01808191818C01C8010197F1F7DF
:100D40008C01CE018D5A9F4FFC010083118383E5F6
:100D50006CE80E945F099E012B5A3F4F80E090E0B3
:100D6000A8ECB2E4F90180839183A283B3838E015E
:100D7000075A1F4FCE018B5A9F4FFC016081718132
:100D80008281938120E030E04AE753E40E94150F0E
:100D9000DC01CB01F80180839183A283B383CE0170
:100DA000875A9F4F11E0FC0160817181828193819C
:100DB00020E030E040E85FE30E946F1088230CF0F1
:100DC00010E0112349F0CE01835A9F4F21E030E01B
:100DD000FC012083318374C0CE01875A9F4F11E0FC
:100DE000FC01608171818281938120E03FEF4FE7B8
:100DF00057E40E940F1018160CF010E0112309F4AC
:100E00004DC0CE018B5A9F4FFC0160817181828160
:100E1000938120E030E040E251E40E94150FDC01B4
:100E2000CB018E01035A1F4FBC01CD010E94410D21
:100E3000DC01CB01F8018083918327C0CE01815A68
:100E40009F4F29E130E0FC0120833183CE01815A9C
:100E50009F4FFC01808191818C01C8010197F1F7BE
:100E60008C01CE01815A9F4FFC0100831183CE017A
:100E7000835A9F4F9E01235A3F4FF90120813181B0
:100E800021503040FC0120833183CE01835A9F4F93
:100E9000FC0180819181009789F62FC08E01035A51
:100EA0001F4FCE01875A9F4FFC0160817181828163
:100EB00093810E94410DDC01CB01F8018083918375
:100EC000CE018F599F4F9E01235A3F4FF901208138
:100ED0003181FC0120833183CE018F599F4FFC016A
:100EE000808191818C01C8010197F1F78C01CE01BD
:100EF0008F599F4FFC010083118388EB98E0FC0120
:100F0000199589E00E94500988E998E0FC0119953B
:100F10009E012D593F4F80E090E0AAEFB3E4F90124
:100F200080839183A283B3838E0109591F4FCE0121
:100F30008D599F4FFC01608171818281938120E0F6
:100F400030E04AE753E40E94150FDC01CB01F801C1
:100F500080839183A283B383CE0189599F4F11E08F
:100F6000FC01608171818281938120E030E040E862
:100F70005FE30E946F1088230CF010E0112349F00A
:100F8000CE0185599F4F21E030E0FC012083318361
:100F900074C0CE0189599F4F11E0FC0160817181BD
:100FA0008281938120E03FEF4FE757E40E940F10CA
:100FB00018160CF010E0112309F44DC0CE018D5924
:100FC0009F4FFC01608171818281938120E030E03C
:100FD00040E251E40E94150FDC01CB018E0105595E
:100FE0001F4FBC01CD010E94410DDC01CB01F80176
:100FF0008083918327C0CE0183599F4F29E130E040
:10100000FC0120833183CE0183599F4FFC018081F5
:1010100091818C01C8010197F1F78C01CE018359B0
:101020009F4FFC0100831183CE0185599F4F9E0184
:1010300025593F4FF9012081318121503040FC0179
:1010400020833183CE0185599F4FFC01808191819E
:10105000009789F62FC08E0105591F4FCE0189597F
:101060009F4FFC0160817181828193810E94410DBB
:10107000DC01CB01F80180839183CE0181599F4F20
:101080009E0125593F4FF90120813181FC012083C8
:101090003183CE0181599F4FFC01808191818C0168
:1010A000C8010197F1F78C01CE0181599F4FFC01D6
:1010B0000083118380E00E94500988EB98E0FC01D6
:1010C00019958EE698E0FC011995C059DF4FCDBF08
:1010D000DEBFCF91DF911F910F910895DF93CF93E2
:1010E000CDB7DEB780E09DE028E4FC01218780E0F9
:1010F0009DE029E4FC01218780E09DE024E5FC01DE
:10110000218780E09DE020E2FC01218780E09DE0D6
:1011100023E4FC01218780E09DE023E5FC01218799
:1011200080E09DE021E3FC012187CF91DF910895CC
:10113000DF93CF93CDB7DEB780E09DE022E4FC01E2
:10114000218780E09DE02CE4FC01218780E09DE088
:1011500029E4FC01218780E09DE02EE4FC01218749
:1011600080E09DE02BE4FC012187CF91DF91089581
:101170000F931F93DF93CF93CDB7DEB72E97CDBFDD
:10118000DEBF80E09DE024E0FC01208380E090E071
:10119000A8ECB2E489839A83AB83BC8369817A81AA
:1011A0008B819C8120E030E04AE753E40E94150FD8
:1011B000DC01CB018D839E83AF83B88711E06D8105
:1011C0007E818F81988520E030E040E85FE30E94D7
:1011D0006F1088230CF010E0112329F081E090E0DB
:1011E00089879A8746C011E06D817E818F819885BD
:1011F00020E03FEF4FE757E40E940F1018160CF065
:1012000010E0112361F169817A818B819C8120E05A
:1012100030E040E251E40E94150FDC01CB01BC013B
:10122000CD010E94410DDC01CB0189879A8712C054
:1012300089E190E08B879C878B859C858C01C80118
:101240000197F1F78C010B871C8789859A85019797
:1012500089879A8789859A85009751F717C06D818C
:101260007E818F8198850E94410DDC01CB018987A9
:101270009A8789859A858D879E878D859E858C0125
:10128000F8013197F1F78F010D871E870E949609AB
:101290002E96CDBFDEBFCF91DF911F910F910895A4
:1012A000DF93CF930F92CDB7DEB7898380E09DE0C7
:1012B0002981FC0125830F90CF91DF910895DF9361
:1012C000CF930F920F92CDB7DEB789836A8380E008
:1012D0009DE02A81FC01208780E09DE02981FC01BE
:1012E00021870F900F90CF91DF910895DF93CF93D7
:1012F0000F92CDB7DEB7898380E09DE02981FC01A4
:1013000021870F90CF91DF910895DF93CF930F92B4
:101310000F92CDB7DEB789839A838981805D0E9461
:1013200076090F900F90CF91DF910895DF93CF93BF
:10133000CDB7DEB780E490E021E0FC01238380E0BC
:101340009DE02FE3FC01228380E09DE02CE8FC017E
:10135000208780E09DE022E8FC012083CF91DF918F
:101360000895DF93CF93CDB7DEB780E09DE020E70F
:10137000FC01218380E09DE02AE1FC01238380EAD7
:1013800090E027E0FC0122837894CF91DF910895CB
:10139000DF93CF93CDB7DEB70E94F00080930E208D
:1013A00080E09DE024EAFC01208780910E208D30B2
:1013B00009F0FEC080910A2090910B20A0910C2092
:1013C000B0910D200196A11DB11D80930A2090932C
:1013D0000B20A0930C20B0930D2080E09DE024EA28
:1013E000FC01208780910A2090910B20A0910C2075
:1013F000B0910D202AE030E040E050E0BC01CD018A
:101400000E94A012DC01CB010E94850980E09DE0D2
:1014100020EAFC01208780910A2090910B20A09166
:101420000C20B0910D2024E630E040E050E0BC01FB
:10143000CD010E94A012DC01CB012AE030E040E0A7
:1014400050E0BC01CD010E94A012DA01C9010E9446
:10145000850980E09DE02CE9FC01208780910A202D
:1014600090910B20A0910C20B0910D2028EE33E03C
:1014700040E050E0BC01CD010E94A012DC01CB0194
:1014800024E630E040E050E0BC01CD010E94A01213
:10149000DA01C9010E94850980E09DE028E9FC018C
:1014A000208780910A2090910B20A0910C20B09170
:1014B0000D2020E137E240E050E0BC01CD010E9468
:1014C000A012DC01CB0128EE33E040E050E0BC018B
:1014D000CD010E94A012DA01C9010E94850980E0B5
:1014E0009DE024E9FC01208780910A2090910B2047
:1014F000A0910C20B0910D2020EA36E841E050E0A8
:10150000BC01CD010E94A012DC01CB0120E137E239
:1015100040E050E0BC01CD010E94A012DA01C901F7
:101520000E94850980E09DE020E9FC0120878091F0
:101530000A2090910B20A0910C20B0910D2020E466
:1015400032E44FE050E0BC01CD010E94A012DC016A
:10155000CB0120EA36E841E050E0BC01CD010E9419
:10156000A012DA01C9010E94850980E09DE02CE803
:10157000FC01208780910A2090910B20A0910C20E3
:10158000B0910D2020E836E948E950E0BC01CD01DA
:101590000E94A012DC01CB0120E432E44FE050E0D5
:1015A000BC01CD010E94A012DA01C9010E94850987
:1015B00080910E208E3009F0FEC080910A2090911B
:1015C0000B20A0910C20B0910D200197A109B10929
:1015D00080930A2090930B20A0930C20B0930D20B1
:1015E00080E09DE024EAFC01208780910A20909110
:1015F0000B20A0910C20B0910D202AE030E040E0BB
:1016000050E0BC01CD010E94A012DC01CB010E9480
:10161000850980E09DE020EAFC01208780910A2076
:1016200090910B20A0910C20B0910D2024E630E089
:1016300040E050E0BC01CD010E94A012DC01CB01D2
:101640002AE030E040E050E0BC01CD010E94A01251
:10165000DA01C9010E94850980E09DE02CE9FC01C6
:10166000208780910A2090910B20A0910C20B091AE
:101670000D2028EE33E040E050E0BC01CD010E9497
:10168000A012DC01CB0124E630E040E050E0BC01D8
:10169000CD010E94A012DA01C9010E94850980E0F3
:1016A0009DE028E9FC01208780910A2090910B2081
:1016B000A0910C20B0910D2020E137E240E050E0F5
:1016C000BC01CD010E94A012DC01CB0128EE33E069
:1016D00040E050E0BC01CD010E94A012DA01C90136
:1016E0000E94850980E09DE024E9FC01208780912B
:1016F0000A2090910B20A0910C20B0910D2020EA9F
:1017000036E841E050E0BC01CD010E94A012DC01AE
:10171000CB0120E137E240E050E0BC01CD010E9466
:10172000A012DA01C9010E94850980E09DE020E94C
:10173000FC01208780910A2090910B20A0910C2021
:10174000B0910D2020E432E44FE050E0BC01CD0127
:101750000E94A012DC01CB0120EA36E841E050E013
:10176000BC01CD010E94A012DA01C9010E948509C5
:1017700080E09DE02CE8FC01208780910A20909178
:101780000B20A0910C20B0910D2020E836E948E90B
:1017900050E0BC01CD010E94A012DC01CB0120E48D
:1017A00032E44FE050E0BC01CD010E94A012DA010A
:1017B000C9010E948509CF91DF9108951F920F9270
:1017C0000FB60F9200903B000F9211242F933F937E
:1017D0004F935F936F937F938F939F93AF93BF9339
:1017E000EF93FF93DF93CF93CDB7DEB70E947A0CD0
:1017F000CF91DF91FF91EF91BF91AF919F918F9129
:101800007F916F915F914F913F912F910F90009237
:101810003B000F900FBE0F901F9018951F920F92D4
:101820000FB60F9200903B000F9211242F933F931D
:101830004F935F936F937F938F939F93AF93BF93D8
:10184000EF93FF93DF93CF93CDB7DEB70E94E90C00
:10185000CF91DF91FF91EF91BF91AF919F918F91C8
:101860007F916F915F914F913F912F910F900092D7
:101870003B000F900FBE0F901F901895DF93CF93F2
:10188000CDB7DEB70E944B0C0E94B8020E949609A9
:101890000E94B109FFCFDF93CF93CDB7DEB780E4CD
:1018A00092E021E0FC0120A380E492E021E0FC0131
:1018B000208380E492E02CE0FC01218380E492E02C
:1018C00028E0FC0121A380E492E024E0FC012483D1
:1018D00080E492E021E1FC01228380E492E023E0B5
:1018E000FC0122A380E492E025E0FC012083CF915B
:1018F000DF910895DF93CF93CDB7DEB70E94F0005C
:1019000080930E20809100209091012081309105DC
:1019100061F480E364EA0E945F0980E360EA0E9468
:101920005F0980E36CE90E945F0980910E208E3090
:10193000A9F480E56CE80E945F098FE460E90E94E9
:101940005F0983E564E90E945F0980E492E028E092
:10195000FC0121A3109200201092012080910E2002
:101960008D30A9F48CE46CE80E945F0989E560E998
:101970000E945F0983E564E90E945F0980E492E0C8
:1019800020E1FC0121A310920020109201208091FF
:101990000E208B30A1F484E56CE80E945F098DE491
:1019A00060E90E945F0980E564E90E945F0980E4C4
:1019B00092E0FC0111A2109200201092012084E616
:1019C00092E0FC018081918180930F20CF91DF9183
:1019D0000895DF93CF93CDB7DEB780910F200E949B
:1019E000FF0CCF91DF910895DF93CF930F92CDB786
:1019F000DEB7898380E00F90CF91DF910895DF9368
:101A0000CF930F92CDB7DEB7898380E09DE024EAC3
:101A1000FC01208789819AE0692F0E948112892F19
:101A2000882F90E00E94850980E09DE020EAFC017B
:101A30002087898194E6692F0E948112892F9AE07C
:101A4000692F0E948112882F90E00E94850980E012
:101A50009DE02CE9FC0120878981882F90E028EE09
:101A600033E0B9010E948D1224E630E0B9010E94F2
:101A70008D129B01C9010E9485090F90CF91DF91C2
:101A80000895EF92FF920F931F937B018C0120E04A
:101A900030E040E05FE40E943F1087FD11C0C801C4
:101AA000B70120E030E040E05FE40E94E40E0E94D5
:101AB0009F109B01AC01205030404040504806C070
:101AC000C801B7010E949F109B01AC01B901CA0176
:101AD0001F910F91FF90EF900895A0E0B0E0E3E731
:101AE000FDE00C94F512FC01EA018081823008F4DB
:101AF00038C1DB019C91923008F430C1843059F434
:101B0000943009F02EC1918111968C9111979817FC
:101B100009F021C126C1943009F420C19230B1F4FA
:101B2000823009F01EC1CA01AF0128E0DA010D9030
:101B3000AD01DC010D92CD012150C1F7DB01119601
:101B40008C9111979181892389830AC1823009F48C
:101B500005C1C280D380DB0112966D907C901397F3
:101B600024813581468157811496ED90FD900D9129
:101B70001C911797C601861997095C0197FF04C04D
:101B8000AA24BB24A81AB90AB0E2AB16B1040CF01F
:101B900061C0181619066CF5370148010A2C04C0FB
:101BA00096948794779467940A94D2F781E090E0B2
:101BB000A0E0B0E00A2C04C0880F991FAA1FBB1F29
:101BC0000A94D2F70197A109B1098E219F21A02380
:101BD000B123EE24FF248701E3940097A105B1050A
:101BE00019F4EE24FF248701E628F728082919298B
:101BF0003CC00097D1F1CA0CDB1C39014A010A2C08
:101C000004C096948794779467940A94D2F781E0FD
:101C100090E0A0E0B0E00A2C04C0880F991FAA1F32
:101C2000BB1F0A94D2F70197A109B109822393231C
:101C3000A423B52321E030E040E050E00097A10567
:101C4000B10519F420E030E0A901262937294829F7
:101C500059290BC06C147D0424F4EE24FF24870161
:101C600004C0630120E030E0A9018181FB01918182
:101C7000891709F445C0882349F0D801C701821BA0
:101C8000930BA40BB50B9C01AD0104C02E193F09A9
:101C9000400B510B57FD04C01982CA82DB820BC076
:101CA00081E08983CA82DB825095409530952195E9
:101CB0003F4F4F4F5F4F2C833D834E835F830DC05B
:101CC000880F991FAA1FBB1F8C839D83AE83BF8380
:101CD0008A819B8101978A839B838C819D81AE81C0
:101CE000BF819C01AD0121503040404050402F3F0A
:101CF000EFEF3E07EFEF4E07EFE35E0708F30BC091
:101D00008983CA82DB822E0D3F1D401F511F2C8309
:101D10003D834E835F8383E088832C813D814E81A8
:101D20005F8157FF1DC0DA01C90181709070A070FA
:101D3000B0705695479537952795822B932BA42BFA
:101D4000B52B8C839D83AE83BF838A819B81019653
:101D50008A839B8305C0E2E0F0E203C0FB0101C07F
:101D6000FE01CF01CDB7DEB7EEE00C940E13A0E27A
:101D7000B0E0EDEBFEE00C94FD1269837A838B8377
:101D80009C832D833E834F83588789E0E82EF12C76
:101D9000EC0EFD1ECE010196B7010E94BF118E010F
:101DA0000F5E1F4FCE010596B8010E94BF11C701FB
:101DB000B801AE01475E5F4F0E946D0D0E94F110A9
:101DC000A096E6E00C941613A0E2B0E0EAEEFEE086
:101DD0000C94FD1269837A838B839C832D833E83CD
:101DE0004F8358878E01075F1F4FCE010196B801C0
:101DF0000E94BF1191E1E92EF12CEC0EFD1ECE01E7
:101E00000596B7010E94BF118A8991E089278A8BC4
:101E1000C801B701AE01475E5F4F0E946D0D0E9481
:101E2000F110A096E6E00C941613A0E2B0E0EBE10E
:101E3000FFE00C94F11269837A838B839C832D835A
:101E40003E834F835887CE010196BE01675F7F4F67
:101E50000E94BF11CE010596BE016F5E7F4F0E94AA
:101E6000BF119985923078F089898230C0F0943022
:101E700019F4823041F4CBC0843019F4923079F4F3
:101E8000C6C0923051F481E02A859A89291709F455
:101E900080E08A87CE010996BCC0823051F481E08F
:101EA0002A859A89291709F480E08A8BCE01419608
:101EB000B0C06D847E848F849888ED88FE880F89F9
:101EC000188DE0E2F0E080E090E0DC01AA24BB2481
:101ED000650120E030E0A901B30161707070611507
:101EE0007105D1F02E0D3F1D401F511F1501260118
:101EF000280E391E4A1E5B1E81E090E0A0E0B0E093
:101F00002E153F054007510718F080E090E0DC01F6
:101F1000820D931DA41DB51DAA0CBB1CCC1CDD1C81
:101F200017FF09C061E0262E312C412C512CA2282C
:101F3000B328C428D528319749F0EE0CFF1C001FA8
:101F4000111F9694879477946794C6CF6B897C8988
:101F5000EB85FC856E0F7F1F6E5F7F4F6B8F7C8FD5
:101F600061E0EA857A89E71709F460E06A8F6B8D92
:101F70007C8D10C0FC01E170F070309729F056950F
:101F80004795379527955068B695A7959795879566
:101F90006F5F7F4FB7FDEECF0CC0880F991FAA1F50
:101FA000BB1F57FD8160220F331F441F551F615017
:101FB00070408030E0E09E07E0E0AE07E0E4BE075E
:101FC00060F36B8F7C8F6FE7E62EF12C012D112DC6
:101FD000E822F9220A231B2360E4E616F104010536
:101FE000110561F487FD0AC0211531054105510530
:101FF00029F0805C9F4FAF4FBF4F80788D8F9E8FB1
:10200000AF8FB8A383E0898FCE01499602C082E0EA
:1020100090E20E94F110A096E2E10C940A13A8E16C
:10202000B0E0E5E1F0E10C94FD1269837A838B83E3
:102030009C832D833E834F8358878E01075F1F4FFC
:10204000CE010196B8010E94BF1181E1E82EF12C6A
:10205000EC0EFD1ECE010596B7010E94BF118985C9
:10206000823040F08989823028F0C801B7010E948F
:10207000281201C08FEF6896E6E00C941613A8E1D1
:10208000B0E0E5E4F0E10C94FD1269837A838B8380
:102090009C832D833E834F8358878E01075F1F4F9C
:1020A000CE010196B8010E94BF1181E1E82EF12C0A
:1020B000EC0EFD1ECE010596B7010E94BF11898569
:1020C000823040F08989823028F0C801B7010E942F
:1020D000281201C08FEF6896E6E00C941613A8E171
:1020E000B0E0E5E7F0E10C94FD1269837A838B831D
:1020F0009C832D833E834F8358878E01075F1F4F3C
:10210000CE010196B8010E94BF1181E1E82EF12CA9
:10211000EC0EFD1ECE010596B7010E94BF11898508
:10212000823040F08989823028F0C801B7010E94CE
:10213000281201C081E06896E6E00C941613ACE02A
:10214000B0E0E5EAF0E10C94011369837A838B83B4
:102150009C83CE010196BE016B5F7F4F0E94BF1131
:102160008D81823081F1823070F1843021F48E8152
:10217000882369F10AC02F81388537FD24C06E811C
:102180002F3131053CF0662311F120E030E040E0D2
:1021900050E821C08EE190E0821B930B29853A859F
:1021A0004B855C8504C056954795379527958A954C
:1021B000D2F7662381F050954095309521953F4F99
:1021C0004F4F5F4F08C020E030E0A90104C02FEF5F
:1021D0003FEF4FEF5FE7B901CA012C96E2E00C94A4
:1021E0001A13EF92FF920F931F93CF93DF93FC018B
:1021F000248135814681578161818081823020F43C
:102200004061EFEFF0E0A3C0843009F49BC082305E
:1022100009F492C0211531054105510509F48FC01B
:102220000280F381E02D8FEFE238F8070CF05AC0FE
:10223000C2E8DFEFCE1BDF0BCA31D1056CF57901A7
:102240008A010C2E04C016950795F794E7940A941A
:10225000D2F781E090E0A0E0B0E00C2E04C0880F3F
:10226000991FAA1FBB1F0A94D2F70197A109B109B0
:1022700082239323A423B52321E030E040E050E003
:102280000097A105B10519F420E030E0A9012E293D
:102290003F29402B512B03C020E030E0A901DA0197
:1022A000C9018F779070A070B07080349105A1053E
:1022B000B10539F427FF09C0205C3F4F4F4F5F4FF6
:1022C00004C0215C3F4F4F4F5F4FE1E0F0E0203012
:1022D00080E0380780E0480780E4580728F5E0E010
:1022E000F0E022C0E038F1056CF5E158FF4FDA016B
:1022F000C9018F779070A070B07080349105A105EE
:10230000B10539F427FF09C0205C3F4F4F4F5F4FA5
:1023100004C0215C3F4F4F4F5F4F57FF05C056959C
:10232000479537952795319687E056954795379588
:1023300027958A95D1F70BC0E0E0F0E005C0E0E01A
:10234000F0E005C0EFEFF0E020E030E0A9018E2FD3
:10235000879588278795942F9F7767956627679538
:10236000E695E22EA92FA82BFE2FF62B622F732FB6
:102370008A2F9F2FCDB7DEB7E6E00C941613DC0151
:10238000FB012C9111963C91119712968C9112970A
:10239000482F4F7750E0982F991F9927991F139630
:1023A0006C911397862F880F892B90E0661F662704
:1023B000661F6183009739F52115310541055105E7
:1023C00011F482E029C082E89FEF8283938367E063
:1023D000220F331F441F551F6A95D1F783E0808376
:1023E00009C0220F331F441F551F8281938101971B
:1023F00082839383203080E0380780E0480780E4C0
:10240000580778F320C08F3F910579F421153105E5
:102410004105510519F484E08083089544FF03C009
:1024200081E0808310C010820EC08F57904082835D
:10243000938383E0808387E0220F331F441F551F5F
:102440008A95D1F750642483358346835783089552
:10245000FC01DB019081923008F449C08C918230FC
:1024600008F445C0943051F461818430B1F511967F
:102470002C91119730E0261B310941C0843021F0A6
:10248000923041F48230B1F111968C9111978823EA
:10249000A1F12DC06181823001F111968C911197CB
:1024A0006817D9F42281338112968D919C911397EC
:1024B0008217930794F028173907BCF024813581DF
:1024C0004681578114968D919D910D90BC91A02DC0
:1024D00082179307A407B50718F4662341F00DC0CF
:1024E000281739074A075B0728F4662331F021E0F3
:1024F00030E005C020E030E002C02FEF3FEFC9011F
:102500000895991B79E004C0991F961708F0961B4F
:10251000881F7A95C9F78095089597FB092E07269D
:102520000AD077FD04D027D006D000201AF4709589
:1025300061957F4F0895F6F7909581959F4F089587
:1025400097FB092E05260ED057FD04D028D00AD0BF
:10255000001C38F450954095309521953F4F4F4FD2
:102560005F4F0895F6F790958095709561957F4F30
:102570008F4F9F4F0895AA1BBB1B51E107C0AA1F95
:10258000BB1FA617B70710F0A61BB70B881F991F14
:102590005A95A9F780959095BC01CD010895A1E2C7
:1025A0001A2EAA1BBB1BFD010DC0AA1FBB1FEE1FCD
:1025B000FF1FA217B307E407F50720F0A21BB30B18
:1025C000E40BF50B661F771F881F991F1A9469F794
:1025D00060957095809590959B01AC01BD01CF01F0
:1025E00008952F923F924F925F926F927F928F92B7
:1025F0009F92AF92BF92CF92DF92EF92FF920F9392
:102600001F93CF93DF93CDB7DEB7CA1BDB0BCDBFD4
:10261000DEBF19942A88398848885F846E847D8457
:102620008C849B84AA84B984C884DF80EE80FD807A
:102630000C811B81AA81B981CE0FD11DCDBFDEBF18
:08264000ED010895F894FFCFAD
:0A2648000100000000000000000087
:00000001FF
